:100000000C9456000C946B000C946B000C946B00D9
:100010000C946B000C946B000C946B000C946B00B4
:100020000C946B000C946B000C946B000C946B00A4
:100030000C946B000C946B000C946B000C946B0094
:100040000C946B000C946B000C946B000C946B0084
:100050000C946B000C946B000C946B000C946B0074
:100060000C946B000C946B000C946B000C946B0064
:100070000C946B000C946B000C946B000C946B0054
:100080000C946B000C946B000C946B000C946B0044
:100090000C946B000C946B000C946B000C946B0034
:1000A0000C946B000C946B000C946B0011241FBE1D
:1000B000CFEFDAE0DEBFCDBF11E0A0E0B1E0E0EFCE
:1000C000F1E002C005900D92A038B107D9F70E9467
:1000D000CA000C94F6000C940000CF93DF93DC016F
:1000E000EC0120E030E048C099919E32A9F42898B4
:1000F0004FE789EA93E0415080409040E1F700C02B
:100100000000289A4FE789EA93E0415080409040F0
:10011000E1F700C000002EC0903251F44FEF82E5AD
:1001200097E0415080409040E1F700C0000022C0BD
:100130009F3251F44FE78CEF9AE04150804090405D
:10014000E1F700C0000016C09D32A1F428984FE7E7
:100150008CEF9AE0415080409040E1F700C00000F1
:10016000289A4FE789EA93E0415080409040E1F7B8
:1001700000C000002F5F3F4FFD0101900020E9F714
:100180003197EA1BFB0B2E173F0708F4ADCFDF9129
:10019000CF910895CF93DF93CDB7DEB7C058D10983
:1001A0000FB6F894DEBF0FBECDBF209A83E3E0E028
:1001B000F1E0DE01119601900D928A95E1F7FE01C2
:1001C000F4968DE4DF011D928A95E9F7CE01019640
:1001D0000E946D0080E090E0C058DF4F0FB6F894A9
:1001E000DEBF0FBECDBFDF91CF910895F894FFCF52
:1001F0002E2E2E2E202E202E2D2E2E202E2D2E2E4B
:10020000202D2D2D202F202E2D2D202D2D2D202E5B
:100210002D2E202E2D2E2E202D2E2E202D2E2D2E2D
:100220002D2D000000000000000000000000000074
:1002300000000000000000000000000000000000BE
:1002400000000000000000000000000000000000AE
:10025000000000000000000000000000000000009E
:10026000000000000000000000000000000000008E
:00000001FF
